{
  "contractName": "Lending",
  "abi": [
    {
      "constant": true,
      "inputs": [],
      "name": "totalContributed",
      "outputs": [
        {
          "name": "",
          "type": "uint256"
        }
      ],
      "payable": false,
      "stateMutability": "view",
      "type": "function"
    },
    {
      "constant": true,
      "inputs": [],
      "name": "totalLendingAmount",
      "outputs": [
        {
          "name": "",
          "type": "uint256"
        }
      ],
      "payable": false,
      "stateMutability": "view",
      "type": "function"
    },
    {
      "constant": true,
      "inputs": [],
      "name": "fundingStartTime",
      "outputs": [
        {
          "name": "",
          "type": "uint256"
        }
      ],
      "payable": false,
      "stateMutability": "view",
      "type": "function"
    },
    {
      "constant": true,
      "inputs": [],
      "name": "borrowerReturnFiatAmount",
      "outputs": [
        {
          "name": "",
          "type": "uint256"
        }
      ],
      "payable": false,
      "stateMutability": "view",
      "type": "function"
    },
    {
      "constant": false,
      "inputs": [],
      "name": "enableReturnContribution",
      "outputs": [],
      "payable": false,
      "stateMutability": "nonpayable",
      "type": "function"
    },
    {
      "constant": false,
      "inputs": [],
      "name": "selfKill",
      "outputs": [],
      "payable": false,
      "stateMutability": "nonpayable",
      "type": "function"
    },
    {
      "constant": false,
      "inputs": [
        {
          "name": "_borrowerReturnEthPerFiatRate",
          "type": "uint256"
        }
      ],
      "name": "establishBorrowerReturnEthPerFiatRate",
      "outputs": [],
      "payable": false,
      "stateMutability": "nonpayable",
      "type": "function"
    },
    {
      "constant": false,
      "inputs": [],
      "name": "unpause",
      "outputs": [],
      "payable": false,
      "stateMutability": "nonpayable",
      "type": "function"
    },
    {
      "constant": true,
      "inputs": [],
      "name": "lendingInterestRatePercentage",
      "outputs": [
        {
          "name": "",
          "type": "uint256"
        }
      ],
      "payable": false,
      "stateMutability": "view",
      "type": "function"
    },
    {
      "constant": true,
      "inputs": [],
      "name": "initialEthPerFiatRate",
      "outputs": [
        {
          "name": "",
          "type": "uint256"
        }
      ],
      "payable": false,
      "stateMutability": "view",
      "type": "function"
    },
    {
      "constant": true,
      "inputs": [],
      "name": "capReached",
      "outputs": [
        {
          "name": "",
          "type": "bool"
        }
      ],
      "payable": false,
      "stateMutability": "view",
      "type": "function"
    },
    {
      "constant": true,
      "inputs": [],
      "name": "minContribAmount",
      "outputs": [
        {
          "name": "",
          "type": "uint256"
        }
      ],
      "payable": false,
      "stateMutability": "view",
      "type": "function"
    },
    {
      "constant": true,
      "inputs": [],
      "name": "paused",
      "outputs": [
        {
          "name": "",
          "type": "bool"
        }
      ],
      "payable": false,
      "stateMutability": "view",
      "type": "function"
    },
    {
      "constant": true,
      "inputs": [
        {
          "name": "",
          "type": "address"
        }
      ],
      "name": "investors",
      "outputs": [
        {
          "name": "amount",
          "type": "uint256"
        },
        {
          "name": "isCompensated",
          "type": "bool"
        }
      ],
      "payable": false,
      "stateMutability": "view",
      "type": "function"
    },
    {
      "constant": true,
      "inputs": [],
      "name": "fundingEndTime",
      "outputs": [
        {
          "name": "",
          "type": "uint256"
        }
      ],
      "payable": false,
      "stateMutability": "view",
      "type": "function"
    },
    {
      "constant": false,
      "inputs": [
        {
          "name": "contributor",
          "type": "address"
        }
      ],
      "name": "contributeWithAddress",
      "outputs": [],
      "payable": true,
      "stateMutability": "payable",
      "type": "function"
    },
    {
      "constant": true,
      "inputs": [],
      "name": "borrower",
      "outputs": [
        {
          "name": "",
          "type": "address"
        }
      ],
      "payable": false,
      "stateMutability": "view",
      "type": "function"
    },
    {
      "constant": false,
      "inputs": [],
      "name": "pause",
      "outputs": [],
      "payable": false,
      "stateMutability": "nonpayable",
      "type": "function"
    },
    {
      "constant": true,
      "inputs": [],
      "name": "owner",
      "outputs": [
        {
          "name": "",
          "type": "address"
        }
      ],
      "payable": false,
      "stateMutability": "view",
      "type": "function"
    },
    {
      "constant": true,
      "inputs": [],
      "name": "lendingDays",
      "outputs": [
        {
          "name": "",
          "type": "uint256"
        }
      ],
      "payable": false,
      "stateMutability": "view",
      "type": "function"
    },
    {
      "constant": false,
      "inputs": [
        {
          "name": "beneficiary",
          "type": "address"
        }
      ],
      "name": "reclaimContributionWithInterest",
      "outputs": [],
      "payable": false,
      "stateMutability": "nonpayable",
      "type": "function"
    },
    {
      "constant": true,
      "inputs": [],
      "name": "borrowerReturnAmount",
      "outputs": [
        {
          "name": "",
          "type": "uint256"
        }
      ],
      "payable": false,
      "stateMutability": "view",
      "type": "function"
    },
    {
      "constant": true,
      "inputs": [],
      "name": "borrowerReturnDate",
      "outputs": [
        {
          "name": "",
          "type": "uint256"
        }
      ],
      "payable": false,
      "stateMutability": "view",
      "type": "function"
    },
    {
      "constant": true,
      "inputs": [],
      "name": "state",
      "outputs": [
        {
          "name": "",
          "type": "uint8"
        }
      ],
      "payable": false,
      "stateMutability": "view",
      "type": "function"
    },
    {
      "constant": true,
      "inputs": [],
      "name": "isContribPeriodRunning",
      "outputs": [
        {
          "name": "",
          "type": "bool"
        }
      ],
      "payable": false,
      "stateMutability": "view",
      "type": "function"
    },
    {
      "constant": true,
      "inputs": [
        {
          "name": "",
          "type": "uint256"
        }
      ],
      "name": "investorsKeys",
      "outputs": [
        {
          "name": "",
          "type": "address"
        }
      ],
      "payable": false,
      "stateMutability": "view",
      "type": "function"
    },
    {
      "constant": true,
      "inputs": [],
      "name": "totalLendingFiatAmount",
      "outputs": [
        {
          "name": "",
          "type": "uint256"
        }
      ],
      "payable": false,
      "stateMutability": "view",
      "type": "function"
    },
    {
      "constant": true,
      "inputs": [],
      "name": "borrowerReturnEthPerFiatRate",
      "outputs": [
        {
          "name": "",
          "type": "uint256"
        }
      ],
      "payable": false,
      "stateMutability": "view",
      "type": "function"
    },
    {
      "constant": false,
      "inputs": [
        {
          "name": "beneficiary",
          "type": "address"
        }
      ],
      "name": "reclaimContribution",
      "outputs": [],
      "payable": false,
      "stateMutability": "nonpayable",
      "type": "function"
    },
    {
      "constant": false,
      "inputs": [],
      "name": "returnBorroweedEth",
      "outputs": [],
      "payable": true,
      "stateMutability": "payable",
      "type": "function"
    },
    {
      "constant": false,
      "inputs": [
        {
          "name": "newOwner",
          "type": "address"
        }
      ],
      "name": "transferOwnership",
      "outputs": [],
      "payable": false,
      "stateMutability": "nonpayable",
      "type": "function"
    },
    {
      "inputs": [
        {
          "name": "_fundingStartTime",
          "type": "uint256"
        },
        {
          "name": "_fundingEndTime",
          "type": "uint256"
        },
        {
          "name": "_borrower",
          "type": "address"
        },
        {
          "name": "_lendingInterestRatePercentage",
          "type": "uint256"
        },
        {
          "name": "_totalLendingAmount",
          "type": "uint256"
        },
        {
          "name": "_initialEthPerFiatRate",
          "type": "uint256"
        },
        {
          "name": "_lendingDays",
          "type": "uint256"
        }
      ],
      "payable": false,
      "stateMutability": "nonpayable",
      "type": "constructor"
    },
    {
      "payable": true,
      "stateMutability": "payable",
      "type": "fallback"
    },
    {
      "anonymous": false,
      "inputs": [
        {
          "indexed": false,
          "name": "endTime",
          "type": "uint256"
        }
      ],
      "name": "onCapReached",
      "type": "event"
    },
    {
      "anonymous": false,
      "inputs": [
        {
          "indexed": false,
          "name": "totalContributed",
          "type": "uint256"
        },
        {
          "indexed": true,
          "name": "investor",
          "type": "address"
        },
        {
          "indexed": false,
          "name": "amount",
          "type": "uint256"
        },
        {
          "indexed": false,
          "name": "investorsCount",
          "type": "uint256"
        }
      ],
      "name": "onContribution",
      "type": "event"
    },
    {
      "anonymous": false,
      "inputs": [
        {
          "indexed": true,
          "name": "contributor",
          "type": "address"
        },
        {
          "indexed": false,
          "name": "amount",
          "type": "uint256"
        }
      ],
      "name": "onCompensated",
      "type": "event"
    },
    {
      "anonymous": false,
      "inputs": [
        {
          "indexed": false,
          "name": "state",
          "type": "uint256"
        }
      ],
      "name": "StateChange",
      "type": "event"
    },
    {
      "anonymous": false,
      "inputs": [],
      "name": "Pause",
      "type": "event"
    },
    {
      "anonymous": false,
      "inputs": [],
      "name": "Unpause",
      "type": "event"
    },
    {
      "anonymous": false,
      "inputs": [
        {
          "indexed": true,
          "name": "previousOwner",
          "type": "address"
        },
        {
          "indexed": true,
          "name": "newOwner",
          "type": "address"
        }
      ],
      "name": "OwnershipTransferred",
      "type": "event"
    }
  ],
  "bytecode": "0x606060405260008060146101000a81548160ff02191690831515021790555067016345785d8a000060015534156200003657600080fd5b60405160e080620017f183398101604052808051906020019091908051906020019091908051906020019091908051906020019091908051906020019091908051906020019091908051906020019091905050336000806101000a81548173ffffffffffffffffffffffffffffffffffffffff021916908373ffffffffffffffffffffffffffffffffffffffff160217905550866003819055508560048190555084600d60006101000a81548173ffffffffffffffffffffffffffffffffffffffff021916908373ffffffffffffffffffffffffffffffffffffffff160217905550836008819055508260098190555081600b8190555062000154600b54600954620001e56401000000000262001505179091906401000000009004565b600c8190555080600a819055506000600660016101000a81548160ff021916908360038111156200018157fe5b02179055507f49628ca47affc2c0364f092b96d5c6037157da8dd90c96c281f775bd576a45b9600660019054906101000a900460ff166003811115620001c357fe5b6040518082815260200191505060405180910390a15050505050505062000224565b6000806000841415620001fc57600091506200021d565b82840290508284828115156200020e57fe5b041415156200021957fe5b8091505b5092915050565b6115bd80620002346000396000f30060606040526004361061018b576000357c0100000000000000000000000000000000000000000000000000000000900463ffffffff168063023f4147146101b257806315d28e11146101db5780631df935581461020457806327f397a91461022d5780632a1cdf7a146102565780633ae2119b1461026b5780633b613dc7146102805780633f4ba83a146102a357806341c8b1de146102b85780634b3c5513146102e15780634f9359451461030a5780635b55169c146103375780635c975abb146103605780636f7bc9be1461038d57806374eedd46146103e55780637b3aa4411461040e5780637df1f1b91461043c5780638456cb59146104915780638da5cb5b146104a657806397299d8a146104fb5780639b82860914610524578063a5f2e0791461055d578063bda6c49714610586578063c19d93fb146105af578063cfefe5a2146105e6578063d5d87bfd14610613578063dee1bfbe14610676578063e0341ff91461069f578063e78686eb146106c8578063eff02ec514610701578063f2fde38b1461070b575b600060149054906101000a900460ff161515156101a757600080fd5b6101b033610744565b005b34156101bd57600080fd5b6101c5610a63565b6040518082815260200191505060405180910390f35b34156101e657600080fd5b6101ee610a69565b6040518082815260200191505060405180910390f35b341561020f57600080fd5b610217610a6f565b6040518082815260200191505060405180910390f35b341561023857600080fd5b610240610a75565b6040518082815260200191505060405180910390f35b341561026157600080fd5b610269610a7b565b005b341561027657600080fd5b61027e610ae0565b005b341561028b57600080fd5b6102a16004808035906020019091905050610b75565b005b34156102ae57600080fd5b6102b6610c2b565b005b34156102c357600080fd5b6102cb610ce9565b6040518082815260200191505060405180910390f35b34156102ec57600080fd5b6102f4610cef565b6040518082815260200191505060405180910390f35b341561031557600080fd5b61031d610cf5565b604051808215151515815260200191505060405180910390f35b341561034257600080fd5b61034a610d08565b6040518082815260200191505060405180910390f35b341561036b57600080fd5b610373610d0e565b604051808215151515815260200191505060405180910390f35b341561039857600080fd5b6103c4600480803573ffffffffffffffffffffffffffffffffffffffff16906020019091905050610d21565b60405180838152602001821515151581526020019250505060405180910390f35b34156103f057600080fd5b6103f8610d52565b6040518082815260200191505060405180910390f35b61043a600480803573ffffffffffffffffffffffffffffffffffffffff16906020019091905050610744565b005b341561044757600080fd5b61044f610d58565b604051808273ffffffffffffffffffffffffffffffffffffffff1673ffffffffffffffffffffffffffffffffffffffff16815260200191505060405180910390f35b341561049c57600080fd5b6104a4610d7e565b005b34156104b157600080fd5b6104b9610e3e565b604051808273ffffffffffffffffffffffffffffffffffffffff1673ffffffffffffffffffffffffffffffffffffffff16815260200191505060405180910390f35b341561050657600080fd5b61050e610e63565b6040518082815260200191505060405180910390f35b341561052f57600080fd5b61055b600480803573ffffffffffffffffffffffffffffffffffffffff16906020019091905050610e69565b005b341561056857600080fd5b610570610f85565b6040518082815260200191505060405180910390f35b341561059157600080fd5b610599610f8b565b6040518082815260200191505060405180910390f35b34156105ba57600080fd5b6105c2610f91565b604051808260038111156105d257fe5b60ff16815260200191505060405180910390f35b34156105f157600080fd5b6105f9610fa4565b604051808215151515815260200191505060405180910390f35b341561061e57600080fd5b6106346004808035906020019091905050610fd7565b604051808273ffffffffffffffffffffffffffffffffffffffff1673ffffffffffffffffffffffffffffffffffffffff16815260200191505060405180910390f35b341561068157600080fd5b610689611016565b6040518082815260200191505060405180910390f35b34156106aa57600080fd5b6106b261101c565b6040518082815260200191505060405180910390f35b34156106d357600080fd5b6106ff600480803573ffffffffffffffffffffffffffffffffffffffff16906020019091905050611022565b005b6107096110f0565b005b341561071657600080fd5b610742600480803573ffffffffffffffffffffffffffffffffffffffff169060200190919050506111bc565b005b600080600080600060149054906101000a900460ff1615151561076657600080fd5b600154341015151561077757600080fd5b61077f610fa4565b151561078a57600080fd5b3493506000925060055491506107a9848361131190919063ffffffff16565b600581905550600554905060095481101580156107c7575060095482105b15610865576001600660006101000a81548160ff021916908315150217905550426004819055507fcdf2a87753a725b409e9ce02d5505652d7e5f5e226b2b4aa7b2ec3f1b4454d2f6004546040518082815260200191505060405180910390a161083c6009548261132f90919063ffffffff16565b9250610851838561132f90919063ffffffff16565b9350600954600581905550610864611348565b5b6000600260008773ffffffffffffffffffffffffffffffffffffffff1673ffffffffffffffffffffffffffffffffffffffff16815260200190815260200160002060000154141561091457600780548060010182816108c49190611540565b9160005260206000209001600087909190916101000a81548173ffffffffffffffffffffffffffffffffffffffff021916908373ffffffffffffffffffffffffffffffffffffffff160217905550505b61096984600260008873ffffffffffffffffffffffffffffffffffffffff1673ffffffffffffffffffffffffffffffffffffffff1681526020019081526020016000206000015461131190919063ffffffff16565b600260008773ffffffffffffffffffffffffffffffffffffffff1673ffffffffffffffffffffffffffffffffffffffff1681526020019081526020016000206000018190555060008311156109f9573373ffffffffffffffffffffffffffffffffffffffff166108fc849081150290604051600060405180830381858888f1935050505015156109f857600080fd5b5b8473ffffffffffffffffffffffffffffffffffffffff167fa4343ae98cbe49a830f8d4239e189409bfc6939e7f70d8af07acd896d89580a5828660078054905060405180848152602001838152602001828152602001935050505060405180910390a25050505050565b60055481565b60095481565b60035481565b600f5481565b6000809054906101000a900473ffffffffffffffffffffffffffffffffffffffff1673ffffffffffffffffffffffffffffffffffffffff163373ffffffffffffffffffffffffffffffffffffffff16141515610ad657600080fd5b610ade611348565b565b6000809054906101000a900473ffffffffffffffffffffffffffffffffffffffff1673ffffffffffffffffffffffffffffffffffffffff163373ffffffffffffffffffffffffffffffffffffffff16141515610b3b57600080fd5b6000809054906101000a900473ffffffffffffffffffffffffffffffffffffffff1673ffffffffffffffffffffffffffffffffffffffff16ff5b6000809054906101000a900473ffffffffffffffffffffffffffffffffffffffff1673ffffffffffffffffffffffffffffffffffffffff163373ffffffffffffffffffffffffffffffffffffffff16141515610bd057600080fd5b60016003811115610bdd57fe5b600660019054906101000a900460ff166003811115610bf857fe5b141515610c0457600080fd5b80601081905550610c22601054600f546114ea90919063ffffffff16565b60118190555050565b6000809054906101000a900473ffffffffffffffffffffffffffffffffffffffff1673ffffffffffffffffffffffffffffffffffffffff163373ffffffffffffffffffffffffffffffffffffffff16141515610c8657600080fd5b600060149054906101000a900460ff161515610ca157600080fd5b60008060146101000a81548160ff0219169083151502179055507f7805862f689e2f13df9f062ff482ad3ad112aca9e0847911ed832e158c525b3360405160405180910390a1565b60085481565b600b5481565b600660009054906101000a900460ff1681565b60015481565b600060149054906101000a900460ff1681565b60026020528060005260406000206000915090508060000154908060010160009054906101000a900460ff16905082565b60045481565b600d60009054906101000a900473ffffffffffffffffffffffffffffffffffffffff1681565b6000809054906101000a900473ffffffffffffffffffffffffffffffffffffffff1673ffffffffffffffffffffffffffffffffffffffff163373ffffffffffffffffffffffffffffffffffffffff16141515610dd957600080fd5b600060149054906101000a900460ff16151515610df557600080fd5b6001600060146101000a81548160ff0219169083151502179055507f6985a02210a168e66602d3235cb6db0e70f92b3ba4d376a33c0f3d9434bff62560405160405180910390a1565b6000809054906101000a900473ffffffffffffffffffffffffffffffffffffffff1681565b600a5481565b6000600380811115610e7757fe5b600660019054906101000a900460ff166003811115610e9257fe5b141515610e9e57600080fd5b610f306064610f22601054610f14600854610f06600b54600260008b73ffffffffffffffffffffffffffffffffffffffff1673ffffffffffffffffffffffffffffffffffffffff1681526020019081526020016000206000015461150590919063ffffffff16565b61150590919063ffffffff16565b6114ea90919063ffffffff16565b6114ea90919063ffffffff16565b9050600081111515610f4157600080fd5b8173ffffffffffffffffffffffffffffffffffffffff166108fc829081150290604051600060405180830381858888f193505050501515610f8157600080fd5b5050565b60115481565b600e5481565b600660019054906101000a900460ff1681565b60004260035411158015610fb9575042600454115b8015610fd25750600660009054906101000a900460ff16155b905090565b600781815481101515610fe657fe5b90600052602060002090016000915054906101000a900473ffffffffffffffffffffffffffffffffffffffff1681565b600c5481565b60105481565b60006002600381111561103157fe5b600660019054906101000a900460ff16600381111561104c57fe5b14151561105857600080fd5b600260008373ffffffffffffffffffffffffffffffffffffffff1673ffffffffffffffffffffffffffffffffffffffff1681526020019081526020016000206000015490506000811115156110ac57600080fd5b8173ffffffffffffffffffffffffffffffffffffffff166108fc829081150290604051600060405180830381858888f1935050505015156110ec57600080fd5b5050565b600160038111156110fd57fe5b600660019054906101000a900460ff16600381111561111857fe5b14151561112457600080fd5b600060105411151561113557600080fd5b6011543414151561114557600080fd5b6003600660016101000a81548160ff0219169083600381111561116457fe5b02179055507f49628ca47affc2c0364f092b96d5c6037157da8dd90c96c281f775bd576a45b9600660019054906101000a900460ff1660038111156111a557fe5b6040518082815260200191505060405180910390a1565b6000809054906101000a900473ffffffffffffffffffffffffffffffffffffffff1673ffffffffffffffffffffffffffffffffffffffff163373ffffffffffffffffffffffffffffffffffffffff1614151561121757600080fd5b600073ffffffffffffffffffffffffffffffffffffffff168173ffffffffffffffffffffffffffffffffffffffff161415151561125357600080fd5b8073ffffffffffffffffffffffffffffffffffffffff166000809054906101000a900473ffffffffffffffffffffffffffffffffffffffff1673ffffffffffffffffffffffffffffffffffffffff167f8be0079c531659141344cd1fd0a4f28419497f9722a3daafe3b4186f6b6457e060405160405180910390a3806000806101000a81548173ffffffffffffffffffffffffffffffffffffffff021916908373ffffffffffffffffffffffffffffffffffffffff16021790555050565b600080828401905083811015151561132557fe5b8091505092915050565b600082821115151561133d57fe5b818303905092915050565b60095460055410156113de576004544211151561136457600080fd5b6002600660016101000a81548160ff0219169083600381111561138357fe5b02179055507f49628ca47affc2c0364f092b96d5c6037157da8dd90c96c281f775bd576a45b9600660019054906101000a900460ff1660038111156113c457fe5b6040518082815260200191505060405180910390a16114e8565b600d60009054906101000a900473ffffffffffffffffffffffffffffffffffffffff1673ffffffffffffffffffffffffffffffffffffffff166108fc6005549081150290604051600060405180830381858888f19350505050151561144257600080fd5b6001600660016101000a81548160ff0219169083600381111561146157fe5b02179055507f49628ca47affc2c0364f092b96d5c6037157da8dd90c96c281f775bd576a45b9600660019054906101000a900460ff1660038111156114a257fe5b6040518082815260200191505060405180910390a16114e160646114d3600854600c5461150590919063ffffffff16565b6114ea90919063ffffffff16565b600f819055505b565b60008082848115156114f857fe5b0490508091505092915050565b600080600084141561151a5760009150611539565b828402905082848281151561152b57fe5b0414151561153557fe5b8091505b5092915050565b81548183558181151161156757818360005260206000209182019101611566919061156c565b5b505050565b61158e91905b8082111561158a576000816000905550600101611572565b5090565b905600a165627a7a72305820dbf476ba591cfa73dbf422baafe3d310d5055c2cf33a6133d700b92740b49bd00029",
  "source": "pragma solidity ^0.4.18;\n\nimport \"./math/SafeMath.sol\";\nimport \"./lifecycle/Pausable.sol\";\nimport \"./ownership/Ownable.sol\";\n\n\ncontract Lending is Ownable, Pausable {\n    using SafeMath for uint256;\n    uint256 public minContribAmount = 0.1 ether;                          // 0.01 ether\n    enum LendingState {AcceptingContributions, AwaitingReturn, ProjectNotFunded, ContributionReturned}\n\n    mapping(address => Investor) public investors;\n    uint256 public fundingStartTime;                                     // Start time of contribution period in UNIX time\n    uint256 public fundingEndTime;                                       // End time of contribution period in UNIX time\n    uint256 public totalContributed;\n    bool public capReached;\n    LendingState public state; \n    address[] public investorsKeys;\n\n    uint256 public lendingInterestRatePercentage;\n    uint256 public totalLendingAmount;\n    uint256 public lendingDays;\n    uint256 public initialEthPerFiatRate;\n    uint256 public totalLendingFiatAmount;\n    address public borrower;\n    uint256 public borrowerReturnDate;\n    uint256 public borrowerReturnFiatAmount;\n    uint256 public borrowerReturnEthPerFiatRate;\n    uint256 public borrowerReturnAmount;\n\n    struct Investor {\n        uint amount;\n        bool isCompensated;\n    }\n\n    // events\n    event onCapReached(uint endTime);\n    event onContribution(uint totalContributed, address indexed investor, uint amount, uint investorsCount);\n    event onCompensated(address indexed contributor, uint amount);\n    event StateChange(uint state);\n\n    function Lending(uint _fundingStartTime, uint _fundingEndTime, address _borrower, uint _lendingInterestRatePercentage, uint _totalLendingAmount, uint256 _initialEthPerFiatRate, uint256 _lendingDays) public {\n        fundingStartTime = _fundingStartTime;\n        fundingEndTime = _fundingEndTime;\n        borrower = _borrower;\n        // 115\n        lendingInterestRatePercentage = _lendingInterestRatePercentage;\n        totalLendingAmount = _totalLendingAmount;\n        initialEthPerFiatRate = _initialEthPerFiatRate;\n        totalLendingFiatAmount = totalLendingAmount.mul(initialEthPerFiatRate);\n        //90 days for version 0.1\n        lendingDays = _lendingDays;\n        state = LendingState.AcceptingContributions;\n        StateChange(uint(state));\n    }\n\n    function() public payable whenNotPaused {\n        contributeWithAddress(msg.sender);\n    }\n    \n    function isContribPeriodRunning() public constant returns(bool){\n        return fundingStartTime <= now && fundingEndTime > now && !capReached;\n    }\n\n    // @notice Function to participate in contribution period\n    //  Amounts from the same address should be added up\n    //  If cap is reached, end time should be modified\n    //  Funds should be transferred into multisig wallet\n    // @param contributor Address \n    function contributeWithAddress(address contributor) public payable whenNotPaused {\n        require(msg.value >= minContribAmount);\n        require(isContribPeriodRunning());\n\n        uint contribValue = msg.value;\n        uint excessContribValue = 0;\n\n        uint oldTotalContributed = totalContributed;\n\n        totalContributed = oldTotalContributed.add(contribValue);\n\n        uint newTotalContributed = totalContributed;\n\n        // cap was reached\n        if (newTotalContributed >=  totalLendingAmount &&\n            oldTotalContributed < totalLendingAmount)\n        {\n            capReached = true;\n            fundingEndTime = now;\n            onCapReached(fundingEndTime);\n\n            // Everything above hard cap will be sent back to contributor\n            excessContribValue = newTotalContributed.sub(totalLendingAmount);\n            contribValue = contribValue.sub(excessContribValue);\n\n            totalContributed = totalLendingAmount;\n            finishContributionPeriod();\n        }\n\n        if (investors[contributor].amount == 0) {\n            investorsKeys.push(contributor);\n        }\n\n        investors[contributor].amount = investors[contributor].amount.add(contribValue);\n\n        if (excessContribValue > 0) {\n            msg.sender.transfer(excessContribValue);\n        }\n        onContribution(newTotalContributed, contributor, contribValue, investorsKeys.length);\n    }\n\n    function enableReturnContribution() external onlyOwner {\n        finishContributionPeriod();\n    }\n\n    function finishContributionPeriod() internal {\n        if (totalContributed < totalLendingAmount){\n            require(now > fundingEndTime);\n            state = LendingState.ProjectNotFunded;\n            StateChange(uint(state));\n        }\n        else{\n            borrower.transfer(totalContributed);\n            state = LendingState.AwaitingReturn;\n            StateChange(uint(state));\n            borrowerReturnFiatAmount = totalLendingFiatAmount.mul(lendingInterestRatePercentage).div(100);\n        }\n    }\n\n    function reclaimContribution(address beneficiary) external {\n        require(state == LendingState.ProjectNotFunded);\n        uint contribution = investors[beneficiary].amount;\n        require(contribution > 0);\n        beneficiary.transfer(contribution);\n    }\n\n    function establishBorrowerReturnEthPerFiatRate(uint256 _borrowerReturnEthPerFiatRate) external onlyOwner{\n        require(state == LendingState.AwaitingReturn);\n        borrowerReturnEthPerFiatRate = _borrowerReturnEthPerFiatRate;\n        borrowerReturnAmount = borrowerReturnFiatAmount.div(borrowerReturnEthPerFiatRate);\n    }\n    \n    function returnBorroweedEth() payable external {\n        require(state == LendingState.AwaitingReturn);\n        require(borrowerReturnEthPerFiatRate > 0);\n        require(msg.value == borrowerReturnAmount);\n        state = LendingState.ContributionReturned;\n        StateChange(uint(state));\n    } \n\n    function reclaimContributionWithInterest(address beneficiary) external{\n        require(state == LendingState.ContributionReturned);\n        uint contribution = investors[beneficiary].amount.mul(initialEthPerFiatRate).mul(lendingInterestRatePercentage).div(borrowerReturnEthPerFiatRate).div(100);\n        require(contribution > 0);\n        beneficiary.transfer(contribution);\n    }\n\n    function selfKill() external onlyOwner {\n        selfdestruct(owner);\n    }\n}\n\n\n\n",
  "sourcePath": "/home/raul/Development/EthicHub/platform-contracts/contracts/Lending.sol",
  "compiler": {
    "name": "solc",
    "version": "0.4.18+commit.9cf6e910.Emscripten.clang"
  },
  "schemaVersion": "1.0.1",
  "updatedAt": "2018-01-08T19:31:06.908Z"
}